:020000040800F2
:100000002008002061020008ED460008494400086D
:10001000E9460008BD1600087557000800000000FA
:100020000000000000000000000000003D4D00083E
:1000300031170008000000005D470008954D0008DA
:100040007B0200087B0200087B0200087B0200089C
:100050007B0200087B0200087B0200087B0200088C
:100060007B0200087B0200087B0200087B0200087C
:100070007B0200087B020008C1160008D1160008A8
:100080007B0200087B0200087B0200087B0200085C
:100090007B0200087B0200087B020008351700087D
:1000A0007B0200087B0200087B0200087B0200083C
:1000B000354E00087B0200087B0200087B02000826
:1000C0007B0200087B0200087B0200087B0200081C
:1000D0007B020008655700087B0200087B020008CD
:1000E0007B0200087B0200087B02000800F002F897
:1000F00000F0A6F814A696E8000CB244B344DA4522
:1001000001D100F09DF8BAE80F000FA696E8300084
:10011000A5EB040504EB0607AAEB0704A7F101070A
:100120004FEA15154FEA3414A4F10104AC4201D38F
:1001300000F086F813F0010F18BFFB1A43F001031B
:1001400000F001F8DBE7184748630000686300002F
:10015000103A24BF78C878C1FAD8520724BF30C8F3
:1001600030C144BF04680C60704700007047000055
:100170000023002400250026103A28BF78C1FBD8B0
:10018000520728BF30C148BF0B6070476E2900F08E
:100190001B82702900F05D83662906F0B380652913
:1001A00006F0B080672906F0AD80612906F0AC80CA
:1001B00003681B0A28BF41F08001692900F0C8814B
:1001C000642900F0C581752900F0C2816F2900F013
:1001D000EB82782900F02983E92900F08582E4295F
:1001E00000F08282F52900F07F82EF2900F0E8829A
:1001F000F82900F028830368DB0928BF41F080015B
:10020000632901F0DD80732901F0E280E32901F028
:10021000ED80F32901F0F280002070471FB500F057
:1002200097FC04000020002106F040F8401C6060AC
:100230000020002106F050F8E0601FBD10B510BD91
:1002400001F012F91146FFF7E9FF05F01BFC01F080
:10025000E3F903B4FFF7F2FF03BC01F027FA000053
:100260000948804709480047FEE7FEE7FEE7FEE74A
:10027000FEE7FEE7FEE7FEE7FEE7FEE70448054986
:10028000054A064B70470000314E0008ED0000089B
:10029000200200202008002020040020200400204C
:1002A0000FB41CB5084B06AA7B446946009005981C
:1002B00000F0A3F904460020694600F0B1F9204699
:1002C0001CBC5DF814FB0000750300002DE9F05F15
:1002D00093460F4680460446002600F0D3F8D0F837
:1002E0000090824614F8015B2DB100F0C3F800685D
:1002F000405DC007F6D12B2D02D02D2D1AD0641EE3
:100300000021CAF800105A463946204600F070FB1A
:10031000014627B13868A04201D1C7F80080DAF859
:100320000000022809D0CAF80090700505D548429F
:10033000BDE8F09F46F48066E2E70846F8E710B5AE
:10034000431C02E010F8011B71B18107FAD14FF094
:10035000013202C88C1A8C4314EAC211F9D0C01AB7
:100360000A0603D0C01E10BDC01A10BD0A0401D079
:10037000801E10BD0902FCD0401E10BD40EA0103E2
:1003800070B59B072ED14FF00136042A2AD308C836
:1003900010C99D1B9D43121F15EAC61517D0D8B270
:1003A000E1B2401A50EA056110D198B2A1B2401AE8
:1003B00050EA05410AD123F07F4024F07F41401AE2
:1003C00050EA052102D1180EA0EB146070BDA342C3
:1003D000DBD018BA21BA884201D9012070BD4FF094
:1003E000FF3070BD0AB9002070BD10F8013B11F854
:1003F000014B63B1A3420AD1521E08D010F8013B51
:1004000011F8014B1BB1A34201D1521EEDD1181BB3
:1004100070BD4FF0000200B5134694469646203951
:1004200022BFA0E80C50A0E80C50B1F12001BFF4AD
:10043000F7AF090728BFA0E80C5048BF0CC05DF813
:1004400004EB890028BF40F8042B08BF704748BF61
:1004500020F8022B11F0804F18BF00F8012B7047D5
:10046000014900F015BB00001000002070477047E4
:100470007047000010B500F06BFB001D10BD00BF01
:100480002D5E0000004870473C00002070B5044617
:1004900085690068C10601D5302600E02026C00726
:1004A00007D070BDD4E9012130469047206A401C36
:1004B00020626D1EF6D570BD70B504468569007862
:1004C000C00707D170BDD4E9012120209047206AE0
:1004D000401C20626D1EF6D570BD09684A0501D525
:1004E00040B27047C905FCD500B2704709684A059B
:1004F00001D5C0B27047C905FCD580B2704770B550
:100500000C460546012A05D02878800600D5EA6900
:10051000002302E0012305E05B1C934202D2E05C71
:100520000028F9D1A869E618C01AA861286A1844F9
:1005300028622846FFF7AAFF04E0D5E9012114F854
:10054000010B9047B442F8D32846FFF7B5FF70BDC2
:100550002DE9F0410646002410687529314616A59C
:1005600010D0FFF7BAFF002802DA404213A507E0D7
:1005700031688A0701D512A502E0490704D511A503
:10058000012401E0FFF7B2FF00210A2206F124074F
:1005900009E0B0FBF2FCB0FBF2F302FB1C003030D0
:1005A00078541846491C0028F3D123462A46304681
:1005B000BDE8F04100F015BB000000002D00000078
:1005C0002B0000002000000011680268006A53053B
:1005D00001D508700AE0D30501D5088006E01306AE
:1005E00003D5C217C1E9000200E00860012070478E
:1005F00001694A1C02610878704700B58FB0CDE9E7
:1006000001310021059105497944CDE903101146D6
:10061000684600F029F90FB000BD0000E5FFFFFFBC
:100620000A6802F8010B0A60704700002DE9FF5FBD
:1006300015468A460446DFF8AC80F8440027D8E91E
:1006400000103E46CDE9001010E03AF816106A4658
:1006500002A800F0E5FE411C07D02178890603D5E9
:10066000E269391891420DD80744761C207880063B
:1006700002D5E069B84205DDAE42E6DB3AF8160085
:100680000028E2D1A069C01BA0612046FFF7FEFE52
:10069000D8E90010CDE90010002017E03AF8181052
:1006A0006A4602A800F0BCFEB0F1FF3F81460BD0C5
:1006B00000250DF1080B05E0D4E901211BF8050028
:1006C00090476D1C4D45F7D308F10100B0428046BC
:1006D000E4DB206A384420622046FFF7EDFEBDE8E7
:1006E000FF9F0000CE5C00002DE9F0418046D21D46
:1006F00022F007020025D2E90002F52915A614D040
:10070000011E72F1000106DA0023D0EB030063EB57
:10071000020211A608E0D8F800108B0701D50FA639
:1007200002E0490701D50EA601251146002408F173
:10073000240704E000F010FA30323A55641C50EA05
:100740000102F7D12B46324621464046BDE8F04132
:1007500000F047BA000000002D0000002B00000050
:100760002000000030B4002100F1240408E002F071
:100770000705D208303542EA4372DB086554491C4C
:1007800052EA0305F3D10468002310A2250708D517
:1007900004F020040C4304D0C46901230CA2641E9D
:1007A000C46130BC00F01DBA10B504462146106883
:1007B000FFF79CFE02462046BDE810400023D1E72B
:1007C000D21D22F00701D1E90023CBE70000000091
:1007D00030000000F0B40D460188090502D5214C17
:1007E0007C4402E01F4C7C440E34002100F12406BE
:1007F00008E002F00F071209E75D42EA03721B09E5
:100800007754491C52EA0307F3D1027800231207F8
:1008100004D5702D06D009B1022311342246F0BC54
:1008200000F0DFB901231034F8E770B504460D4637
:1008300021461068FFF75AFE024629462046BDE8C9
:1008400070400023C6E7D21D22F00703D3E900233E
:10085000C0E70368126843F0200303600823C36104
:100860000023B7E7305B00002DE9F05F89460446BE
:100870004FF0000ADFF874B1FB44C0F820A0204616
:10088000E1688847002874D0252806D0D4E90121E2
:100890009047206A401C2062F1E700265F46204610
:1008A000E16888472028054607DB312D05D27819F5
:1008B00010F8200C08B10643F1E7B00701D526F087
:1008C0000406C4F81CA00027C4F818A02A2D09D0DB
:1008D000284605F0E3FC38B304EB8708303DC8F840
:1008E000185019E059F8041B204604EB8702916167
:1008F000E1688847012F054618D1E069002820DA11
:1009000026F020061DE0D8F8180000EB800005EB6B
:1009100040003038C8F818002046E168884705468E
:1009200005F0BCFC0028EED1012F0AD02E2D08D1F5
:100930002046E16888477F1C0546022F46F02006C6
:10094000C4DBA069002803DA404246F00106A0613A
:10095000F00701D026F010066C2D0BD0682D09D0C1
:100960004C2D39D06A2D35D0742D35D07A2D33D019
:1009700016E038E0E1682F4620468847B842054631
:1009800009D16C2F26D04FF48060E16806432046E1
:100990008847054604E06C2F1AD04FF48070064358
:1009A0000DB3A5F14100192802D8203546F40066A0
:1009B0004A462946204626604E46FFF7E7FB80B1AF
:1009C00001280BD0F61D26F0070000F1080956E7B4
:1009D0004020E4E78020D8E70020D6E706F10409AC
:1009E0004DE7284652E7206ABDE8F09FC05A000054
:1009F0002DE9F05F824615468B4600270AF1010477
:100A0000B9460078302801D09DB113E014F8010BED
:100A10000127782803D0582801D045B10AE00DB14C
:100A2000102D07D1002714F8010B102502E008252E
:100A300000E00A250026B0460EE005FB080005FB95
:100A400006F101271FFA80F801EB1046B6F5803F4A
:100A500000D3B94614F8010B294600F0D3FC002856
:100A6000EBDABBF1000F05D00FB1641E00E0544675
:100A7000CBF80040B9F1000F06D0FFF703FD0221CB
:100A80000160C81EBDE8F09F48EA0640FAE7000092
:100A900070B50C46016800204A1C3ED03C22B1FBD8
:100AA000F2F302FB1313B1FBF2F12360B1FBF2F39B
:100AB00002FB1313B1FBF2F118226360B1FBF2F3F6
:100AC00002FB1313B1FBF2F146F2E0320A440721B4
:100AD000A360B2FBF1F301FB132140F2B553B2FB6B
:100AE000F3F5A161B2FBF3F103FB15228900B2F526
:100AF000B77F08D39B10521EB2FBF3F52944B2FB1B
:100B0000F3F503FB15220F4BE261616189077B441A
:100B10000CD03B2A0AD3521C08E02C212046FFF7B8
:100B200078FC0120E0600AE0521A401C195C9142F6
:100B3000FAD9521CC4E903204FF0FF30206220464E
:100B400070BD000061580000004870473C00002064
:100B5000004870475C00002030B5B0F10A0271F126
:100B600000034FEA900E4EEA817EB0EB0E0061EB7F
:100B700091014FEA101E4EEA017E10EB0E0041EB90
:100B800011114FEA102E4EEA016E10EB0E0041EBF0
:100B900011214FEA104E4EEA014E10EB0E0041EBD0
:100BA0001141401841F100014FEAD00040EA417084
:100BB0004FEAD1014FEA810444EA907410EB8005BA
:100BC00044EB01046D1944EB0404521BA3414FF0A4
:100BD000000348BF0A3200D530BD401C41F100017E
:100BE00030BD2DE9F0470D4699469246044600F186
:100BF00024080168880604D5E06921F0100121600D
:100C000000E00120A84201DD471B00E00027A169A8
:100C10007A1902EB0900081AA0612078C00602D4F4
:100C20002046FFF733FC002608E0D4E901211AF83A
:100C300006009047206A401C761C20624E45F4DB7B
:100C40002078C0060AD52046FFF720FC06E0D4E94C
:100C5000012130209047206A401C2062381EA7F1F5
:100C60000107F4DC07E0D4E9012118F805009047FA
:100C7000206A401C2062281EA5F10105F3DC2046F5
:100C8000FFF71AFC2078000602D50220BDE8F087A5
:100C90000120FBE72DE9FF4F0C461E464FF0FF37C2
:100CA0008BB0D2E90001DDF860800A908A46C1F37A
:100CB0000A5505B93D46002108464FF00000BAF13B
:100CC000000F00F4400005DA00EB80004FF4400113
:100CD00001EA50004FEA9059B9F1010F00DDB94621
:100CE0000A9850EA4A000ED044F61050A5F2FF359B
:100CF00045432F14B8F1000F1ED07542291E1EDD8A
:100D0000C9F100021CE0B8F1010F4FF0000001D062
:100D1000302103E0F24305E02154401CB042FBDBEC
:100D200030460022002121540B99C1F80880C1E906
:100D300000200FB0BDE8F08FBD1B6D1CDEE74A46FA
:100D400000DA694206A800F0F5FB06AB93E807005D
:100D500003AB83E8070050460A9904F0C2FE8DE811
:100D60000700A0F500501F3800900398002D0ADD01
:100D700042F21F014A460844002303A90390684633
:100D800005F02CF909E0A0F500504A461F38002371
:100D900003A90390684605F036F98DE807000004C2
:100DA000000C03D04FF0FF30410800E01046B8F1CE
:100DB000000F03D00022009215461EE0751E05D4D8
:100DC000FFF7CAFE303262556D1EF9D5B3460122D7
:100DD000084302D000227F1C04E02078302801D193
:100DE00000227F1E002A099784D01DE0112D07DA0A
:100DF000FFF7B2FE303262556D1C50EA0102F5D1A8
:100E0000084302D00098C8B10EE00021681E05E03A
:100E1000235C625C63542254401E491C8142F7DB10
:100E2000AB46A81B401E0990002004F80B000B984D
:100E3000099AC0F80880C0E9002B7AE711264FF024
:100E4000000857E72DE9F04F88460446D21D22F0EE
:100E5000070191B0D1E90001CDE90A0105F00AFAD4
:100E600002460B98C00F01D02D2007E020688107B3
:100E700001D52B2002E0202101EAC000032A0990BD
:100E800001D0072A05DB03464146204600F012FB4D
:100E90000BE12078800601D5E06900E00620B8F17A
:100EA000650F814606D0B8F1660F18D0B8F1670F0C
:100EB00070D131E00020B9F1110F009001DB112356
:100EC00001E009F101030AAA01A90CA8FFF7E2FE5B
:100ED000DDE90C70002609F10105834647E0012099
:100EE0004B4600904FF000470AAA01A90CA8FFF753
:100EF000D1FEDDE90DB00C995D46002610B909F16F
:100F000001000D18B9EB050003D4C0F1FF3609F15B
:100F10000105A5EB09002BE0B9F1010F01DA4FF053
:100F200001090020B9F1110F0090484601DD11239D
:100F300000E003460AAA01A90CA8FFF7ABFEDDE911
:100F40000C704D4600268346207800070AD4AB4536
:100F500000DA5D4601A8012D04DD411911F8011CDC
:100F6000302907D04F4502DA17F1040F04DA0120C7
:100F700082460FE06D1EEEE7002F02DCED1B3E44C3
:100F800003E0781CA84200DD7D1CB81B00F1010ABB
:100F90004FF000472078000703D4AA4501DB4FF04B
:100FA000FF3A0021B7F1004F0DF143088DF84310CF
:100FB00024D002202B23002F01DA7F422D230A2187
:100FC000021EA0F1010000DC5FB197FBF1FC97FB72
:100FD000F1F201FB1C7C17460CF1300C08F801CD36
:100FE000EEE7A8F1010003702188090501D545212C
:100FF00000E06521A0F1010800F8011C09980FA983
:10100000A1EB0807FF1D00B10120411901EBEA70B7
:10101000A1693844081A401EA0612078C00602D495
:101020002046FFF733FA099828B1D4E90121904707
:10103000206A401C20622078C00622D52046FFF797
:1010400025FA1EE0002E04DBB34502DD01A8805D19
:1010500000E03020D4E901219047206A401C206242
:10106000761CAAF101005FEA000A0AD1FFF770FDC1
:10107000C0680168405CD4E901219047206A401CA7
:101080002062281EA5F10105DCDC07E0D4E901217E
:1010900018F8010B9047206A401C2062381EA7F107
:1010A0000107F3DC2046FFF707FA032011B041E601
:1010B0002DE9F04F04460D46D21D22F0070089B0FD
:1010C000D0E900974846394605F0D4F80246F80FB3
:1010D00001D02D2307E02068810701D52B2302E0F2
:1010E000202101EAC0038DF820300BB1012000E07F
:1010F0000020032A824601D0072A04DB2946204625
:1011000000F0D8F93FE12078800601D40D2500E0F9
:10111000E569C7F30A560D2D49DA00214FEA175B3E
:1011200008464FF00000002F00F4400007DA00EB03
:1011300080004FF4400100EBD07001EA600081159F
:10114000012901DD4FF0FF3100224FEA850CBCF18F
:10115000180F06D31346ACF118004FF08052C2406E
:1011600003E04FF4801323FA0CF30CF10C0CBCF1E8
:10117000200F04D3ACF1200C09FA0CF001E007FABF
:101180000CF000294FF0004801DD18B90FE00ED136
:1011900040450CD319EB02095F4121B9404502D10A
:1011A0009F4329EA0209BBEB175F00D0761C208819
:1011B000000502D57B48784402E07A487844193823
:1011C00008AA302302F80A30037C0AF10101002E3C
:1011D0000AF1020A53546A4602DC4FF0300101E082
:1011E0004FF031014FF001088DF8001002D0A6F247
:1011F000FF3603E059EA470100D06B4E002D02DCB8
:101200002178090704D54FF002082E218DF801102E
:10121000C44600210BE0C7F303433F01C35C491CF4
:101220006D1E02F80830052908F1010801DA002DC9
:10123000F1DC00210CE000EB1973491C1B786D1EDA
:10124000082902F808304FEA091908F1010801DA03
:10125000002DF0DC21688B0602D516E0A8F101080C
:10126000E04505DD02EB080313F8013C302BF5D017
:10127000B8F1000F09DD02EB080313F8013C2E2B37
:1012800003D1090701D4A8F10108002D05DD3E2195
:1012900002F808106D1E08F10108407C002E02F8CB
:1012A000080008F1010804DA2D20764202F808004F
:1012B00002E02B2002F808000A214FF47A708642DF
:1012C00008F101080BDB96FBF0F3303302F808302D
:1012D00096FBF0F308F1010800FB136601E0642EB1
:1012E0000CDB642096FBF0F3303302F8083096FBF9
:1012F000F0F308F1010800FB136601E00A2E06DB9B
:1013000096FBF1F0303002F8080008F1010896FB76
:10131000F1F001FB1060303002F80800A16908F11B
:10132000010808EB050202EB0A00081AA061207808
:10133000C00602D42046FFF7A9F8216A08AE01EBE7
:101340000A00206204E0D4E9012116F8010B90475D
:10135000BAF1010AF7D22078C00602D52046FFF77D
:1013600095F86E4609E016F8010B3E280FD0D4E937
:1013700001219047206A401C2062B8F10108F2D296
:101380002046FFF799F809B00320BDE8F08F206AE6
:101390002844206203E0D4E90121302090476D1EEB
:1013A000EBD3F8E7A651000002FCFFFF10B543693C
:1013B00013B1AFF3008001E0FFF7A1F8012010BDE9
:1013C000127800F124010A7000224A700122EDE730
:1013D00011684FF0FF32E9E710B5436913B1AFF37D
:1013E000008001E0FFF722F9012010BD128800F112
:1013F000240182840022C2840122EDE711684FF0AB
:10140000FF32E9E73A2800D2303820F02002412AA2
:1014100001D3A2F13700884201D34FF0FF3070476B
:101420002DE9F04116460C460546FFF723F8036800
:1014300093F80101012807D0FF2C12D8185D80B164
:1014400001202C70BDE8F081D3F807013246214617
:1014500003F20713C7182846BC46BDE8F041002335
:1014600060474FF0FF30EDE77546FFF76DFBAE4686
:1014700005006946534620F00700854618B020B5A0
:10148000FEF7FCFEBDE820404FF000064FF00007DD
:101490004FF000084FF0000BAC46ACE8C009ACE8D8
:1014A000C009ACE8C009ACE8C00921F007018D46CD
:1014B000704700002DE9F0411F46044603260168ED
:1014C000072A01F4006004DB08B116A505E016A5A3
:1014D00003E008B115A500E015A521F0100020607B
:1014E000A069C01EA0610FB1401EA0612046FEF79A
:1014F000CDFF4FB1D4E9012138469047206A401C06
:101500002062C01C206206E0206AFAE7D4E90121CB
:1015100015F8010B9047761EF8D22046FEF7CCFF57
:10152000BDE8F0814E414E006E616E00494E4600AE
:10153000696E66002DE9F047814616468AB0354847
:1015400078440DC88DE80D0032487844801C03AC07
:101550000DC884E80D0041F69B300844372190FB0C
:10156000F1F290FBF1F5A5F1800501FB12041B3CA3
:1015700002D56442012000E00020DFF898A08046F8
:101580000027FA44AAF1BE0A0EE0E0070AD032466C
:10159000684607EB470101230AEB810104F033FDA4
:1015A0008DE8070064107F1C002CEED1194F7F449A
:1015B000AE3F19E0E80715D007EB04100DF1180A4B
:1015C00090E80E008AE80E00C068F04201D1981938
:1015D00008903246012306A903A804F014FD03ABCA
:1015E00083E807006D10641C002DE3D14FF0010368
:1015F00032466946B8F1000F03A802D004F0EEFCB1
:1016000001E004F000FDC9E90001C9F808200AB0B2
:10161000BDE8F087B84E000010B50446AFF3008077
:101620002046BDE81040FEF714BE00004FF0013C1C
:1016300050F8042B51F8043B9A4221D1A2EB0C0341
:10164000934313EACC1317D150F8042B51F8043B01
:101650009A4215D1A2EB0C03934313EACC130BD19E
:1016600050F8042B51F8043B9A4209D1A2EB0C0329
:10167000934313EACC13DBD04FF00000704700BF58
:10168000D01A01BAB1FA81F101F0180122FA01F081
:10169000CB40DBB2C0B2C01AC1F120012CFA01F379
:1016A000D11A914311EAC311E6D1704701491820BC
:1016B000ABBEFEE72600020070470000FFE7FEE732
:1016C00080B540F20810C2F2000000F00DF980BDB4
:1016D00080B540F2C400C2F2000000F005F980BD00
:1016E00084B003900291019200930398C16B026C45
:1016F0000120904048600098039909684860039869
:101700004068102809D1FFE70198039909688860AB
:10171000029803990968C86008E00298039909686B
:101720008860019803990968C860FFE704B07047B2
:101730007047000080B5202000F0F6FA80BD000060
:1017400081B0EFF3108072B60090FFE7FEE7000073
:1017500083B0019000208DF80300019890F82100DB
:1017600002280DD0FFE7019904208863FFE7019963
:10177000002081F82000FFE701208DF80B0021E018
:1017800001980168086820F00E000860019801685F
:10179000086820F0010008600198C16B026C01200C
:1017A00090404860FFE70199012081F82100FFE7A0
:1017B0000199002081F82000FFE79DF803008DF8D3
:1017C0000B00FFE79DF80B0003B0704780B588B0B1
:1017D000079000208DF81B00079890F82100022840
:1017E00007D0FFE707990420886301208DF81B00CC
:1017F00076E007980168086820F00E0008600798F6
:101800000168086820F00100086007980068082156
:10181000C4F20201884203D1FFE70120059047E0AE
:10182000079800681C21C4F20201884203D1FFE737
:101830001020049039E0079800683021C4F20201BA
:10184000884204D1FFE74FF4807003902AE00798A4
:1018500000684421C4F20201884204D1FFE74FF43A
:10186000805002901BE0079800685821C4F20201E2
:10187000884204D1FFE74FF4803001900CE00798D4
:1018800001686C22C4F202024FF08070914208BFDE
:101890004FF480100190FFE701980290FFE7029853
:1018A0000390FFE703980490FFE704980590FFE793
:1018B00005980421C4F2020108600799012081F80B
:1018C0002100FFE70799002081F82000FFE7079833
:1018D000406B20B1FFE70798416B8847FFE7FFE7C0
:1018E0009DF81B0008B080BD80B58EB00D900D989E
:1018F000C06B00680C900D98006800680B900C9805
:101900000D99096CC8404007002875D5FFE79DF880
:101910002C00400700286FD5FFE70D98006800688D
:101920008006002807D4FFE70D980168086820F0BA
:1019300004000860FFE70D9800680821C4F2020166
:10194000884203D1FFE704200A9047E00D98006821
:101950001C21C4F20201884203D1FFE74020099014
:1019600039E00D9800683021C4F20201884204D1A8
:10197000FFE74FF4806008902AE00D98006844214A
:10198000C4F20201884204D1FFE74FF4804007907F
:101990001BE00D9800685821C4F20201884204D16E
:1019A000FFE74FF4802006900CE00D9801686C2250
:1019B000C4F202024FF08060914208BF4FF48000F1
:1019C0000690FFE706980790FFE707980890FFE763
:1019D00008980990FFE709980A90FFE70A98042100
:1019E000C4F2020108600D98C06A20B1FFE70D98AB
:1019F000C16A8847FFE7B8E00C980D99096CC840A8
:101A00008007002840F18080FFE79DF82C008007C8
:101A1000002879D5FFE70D98006800688006002847
:101A20000BD4FFE70D980168086820F00A000860F1
:101A30000D99012081F82100FFE70D980068082129
:101A4000C4F20201884203D1FFE70220059047E07B
:101A50000D9800681C21C4F20201884203D1FFE7FF
:101A60002020049039E00D9800683021C4F2020172
:101A7000884204D1FFE74FF4007003902AE00D98EC
:101A800000684421C4F20201884204D1FFE74FF408
:101A9000005002901BE00D9800685821C4F202012A
:101AA000884204D1FFE74FF4003001900CE00D981C
:101AB00001686C22C4F202024FF00070914208BF2C
:101AC0004FF400100190FFE701980290FFE70298A1
:101AD0000390FFE703980490FFE704980590FFE761
:101AE00005980421C4F202010860FFE70D99002067
:101AF00081F82000FFE70D98806A20B1FFE70D987C
:101B0000816A8847FFE72FE00C980D99096CC8405F
:101B10000007002827D5FFE79DF82C0000070028C4
:101B200021D5FFE70D980168086820F00E000860D5
:101B30000D98C26B016C012000FA01F151600D9902
:101B400088630D9981F82100FFE70D99002081F845
:101B50002000FFE70D98006B20B1FFE70D98016BA7
:101B60008847FFE7FFE7FFE7FFE70EB080BD000013
:101B700083B0019000200090019820B9FFE7012078
:101B80008DF80B0047E0019908684FF6F872CBF624
:101B9000FD7210444CF6CD42CCF6CC42A0FB0202C2
:101BA0006FF0030000EA9200086401990020C4F27B
:101BB0000200C8630199022081F8210001980068A1
:101BC00000680090009843F6F071884300900199F6
:101BD0004868D1F808C0CB680A6940EA0C0018438D
:101BE00010434A6910438A691043C9690143009848
:101BF0000843009000980199096808600199002045
:101C00008863019A012182F82110019981F820004E
:101C10008DF80B00FFE79DF80B0003B07047000044
:101C200080B586B0049003910292019300208DF854
:101C30000300FFE7049890F82000012804D1FFE793
:101C400002208DF817004CE00499012081F8200053
:101C5000FFE7FFE7049890F82100012832D1FFE761
:101C60000499022081F821000499002088630498D7
:101C70000168086820F00100086004980399029A3E
:101C8000019BFFF72DFD0498C06A38B1FFE7049867
:101C90000168086840F00E0008600CE004980168D4
:101CA000086820F00400086004980168086840F0A3
:101CB0000A000860FFE704980168086840F0010026
:101CC000086009E0FFE70499002081F82000FFE7A1
:101CD00002208DF80300FFE79DF803008DF8170040
:101CE000FFE79DF8170006B080BD000081B0ADF899
:101CF0000200BDF80200202814D1FFE740F2F010E6
:101D0000C2F200000078C00760B9FFE740F2F011AE
:101D1000C2F200010120087040F20801C2F2000185
:101D20000870FFE701B0704780B582B0ADF80600DB
:101D300040F21440C4F201000068BDF806100842E9
:101D40000CD0FFE7BDF8060040F21441C4F20101D7
:101D50000860BDF80600FFF7C9FFFFE702B080BDCD
:101D600090B00F900E9100200D900990FFE70E9813
:101D700000680D99C840002800F07F81FFE70D99A9
:101D8000012088400C900E9800680C9908400B9038
:101D90000B980C99884240F06C81FFE70E984068E0
:101DA0000590002851D0FFE7059801283AD0FFE7B9
:101DB000059802283FD0FFE7059803285FD0FFE78A
:101DC0000598112832D0FFE70598122838D0FFE790
:101DD00005980021C1F21101884236D0FFE705982D
:101DE0000021C1F2120188422FD0FFE7059800219F
:101DF000C1F22101884228D0FFE705980021C1F2F5
:101E00002201884221D0FFE705980021C1F231016B
:101E100088421AD0FFE705980021C1F232018842BA
:101E200013D02FE00E98C06809902CE00E98C0687F
:101E30000430099027E00E98C0680830099022E02D
:101E40000E98C0680C3009901DE00E98806818B993
:101E5000FFE70420099011E00E988068012806D160
:101E6000FFE7082009900C980F99086105E0082009
:101E700009900C980F994861FFE7FFE703E0002005
:101E8000099000E0FFE70B98FF2803D8FFE70F98C1
:101E9000049003E00F9804300490FFE70498089042
:101EA0000B98FF2804D8FFE70D988000039006E008
:101EB0000D996FF01F0000EB81000390FFE703987E
:101EC000079008980068079A0F2191408843099964
:101ED00091400843089908600E98C079C006002810
:101EE00040F1C680FFE7FFE741F21800C4F20200AC
:101EF000016841F001010160006800F001000690F6
:101F00000698FFE70D9820F003000821C4F20101B4
:101F100040580A900D9800F0030081000F2000FA4D
:101F200001F10A9888430A900F9840F60001C4F224
:101F30000101884203D1FFE70020029026E00F98BC
:101F400040F60041C4F20101884203D1FFE70120BD
:101F5000019018E00F9841F20001C4F2010188429B
:101F600003D1FFE7022000900AE00F9941F20042FE
:101F7000C4F201020420914208BF03200090FFE751
:101F800000980190FFE701980290FFE702980D99F1
:101F900001F00301890000FA01F10A9808430A9050
:101FA0000A980D9921F003010822C4F20102885019
:101FB0000E988079C006002809D5FFE70B9A40F2F9
:101FC0000841C4F2010108681043086008E00B9A58
:101FD00040F20841C4F20101086890430860FFE73D
:101FE0000E9880798006002809D5FFE70B9A40F209
:101FF0000C41C4F2010108681043086008E00B9A24
:1020000040F20C41C4F20101086890430860FFE708
:102010000E9880798007002809D5FFE70B9A40F2D7
:102020000441C4F2010108681043086008E00B9AFB
:1020300040F20441C4F20101086890430860FFE7E0
:102040000E988079C00748B1FFE70B9A40F2004133
:10205000C4F2010108681043086008E00B9A40F2DE
:102060000041C4F20101086890430860FFE7FFE700
:10207000FFE70D9801300D9079E610B07047000031
:1020800082B00190ADF8021001988068BDF802108E
:10209000084204D0FFE701208DF8010003E0002092
:1020A0008DF80100FFE79DF8010002B070470000C5
:1020B00082B00190ADF802108DF801209DF801006A
:1020C00028B1FFE7BDF802000199086105E0BDF8FD
:1020D0000200000401990861FFE702B070470000A8
:1020E00040F21820C2F200000068704740F20A0077
:1020F000C2F20000027840F21821C2F20001086822
:10210000104408607047000080B542F20001C4F23C
:102110000201086840F010000860032000F086F813
:102120000F2000F005F800F03BF8002080BD000013
:1021300080B582B0009040F20000C2F2000000685A
:1021400040F20A01C2F200010A784FF47A71B1FB41
:10215000F2F1B0FBF1F001F08DFA20B1FFE70120C0
:102160008DF8070018E000980F280DD8FFE70099B8
:102170004FF0FF30002200F03FF8009840F20C01D1
:10218000C2F20001086003E001208DF8070003E0BF
:1021900000208DF80700FFE79DF8070002B080BD22
:1021A00082B0FFE741F21800C4F20200016841F07A
:1021B00001010160006800F0010001900198FFE753
:1021C000FFE741F21C00C4F20200016841F08051B7
:1021D0000160006800F0805000900098FFE702B0B6
:1021E0007047000080B582B08DF807009DF90700A8
:1021F00003F0C2FA02B080BD80B586B08DF817003A
:10220000049103920020029003F0CEFA02909DF90F
:102210001700019002980499039A02F069FA0146A6
:10222000019803F0C9FA06B080BD000080B582B005
:102230000190019803F0E2FA02B080BD2021C4F2BF
:102240000E2101200860704780B588B007900020FB
:102250000690059004900390029007980190012841
:1022600066D0FFE70198022800F0A580FFE70198FB
:10227000102840F0B080FFE741F20400C4F20200F1
:102280000068039041F20000C4F202000068C0013F
:1022900000284CD5FFE70398C0F3834146F22C4059
:1022A000C0F60000405C04909DF80E00C007F0B13D
:1022B000FFE741F20400C4F202000068C0F34041AD
:1022C00046F23C40C0F60000405C06909DF80E00CF
:1022D000C00758B1FFE7069941F20020C0F27A002A
:1022E000B0FBF1F0049948430590FFE707E004983C
:1022F00040F60011C0F23D0148430590FFE741F26E
:102300000400C4F2020000684002002803D5FFE781
:10231000059802900AE0059840004AF6AB21CAF6FB
:10232000AA21A0FB011040080290FFE7FFE753E05D
:1023300041F22000C4F2020000680390039800F408
:102340004070B0F5807F0AD1FFE79DF80C00800750
:10235000002804D5FFE74FF4004002902AE00398DC
:1023600000F44070B0F5007F0DD1FFE741F224008A
:10237000C4F2020000688007002804D5FFE749F690
:102380004040029015E0039800F44070B0F5407FA3
:102390000DD1FFE741F20000C4F2020000688003A3
:1023A000002804D5FFE74FF22440029000E0FFE749
:1023B000FFE7FFE710E000F03BFA41F20401C4F24E
:1023C0000201096801F44042022101EB5231B0FBE5
:1023D000F1F0029000E0FFE7029808B080BD000035
:1023E00080B586B004900020039002900498007895
:1023F000C007002800F0AC80FFE700208DF8070040
:1024000041F21C00C4F202000068C000002813D48E
:10241000FFE7FFE741F21C00C4F20200016841F04F
:1024200080510160006800F0805000900098FFE744
:1024300001208DF80700FFE747F20000C4F200001A
:102440000068C005002822D4FFE747F20001C4F26B
:102450000001086840F480700860FFF741FE0390B7
:10246000FFE747F20000C4F200000068C005002842
:102470000CD4FFE7FFF734FE0399401A652804D314
:10248000FFE703208DF817008AE0EAE7FFE741F253
:102490002000C4F20200006800F44070029002982C
:1024A000E0B3FFE702980499496801F4407188425B
:1024B00034D0FFE741F22001C4F20201086820F4A1
:1024C0004070029040F24042C4F24222012010606B
:1024D00000201060029808609DF80800C007E0B175
:1024E000FFE7FFF7FDFD0390FFE741F22000C4F294
:1024F00002000068800700280ED4FFE7FFF7F0FD18
:102500000399401A41F28931884204D3FFE703203E
:102510008DF8170044E0E8E7FFE7FFE741F220010C
:10252000C4F20201086820F44070049A5268104313
:1025300008609DF80700012809D1FFE741F21C015E
:10254000C4F20201086820F080500860FFE7FFE74E
:1025500004980078800700280CD5FFE741F20401B9
:10256000C4F20201086820F44040049A92681043C3
:102570000860FFE704980078C00600280CD5FFE744
:1025800041F20401C4F20201086820F48000049AB8
:10259000D26810430860FFE700208DF81700FFE7BE
:1025A0009DF8170006B080BD80B584B002900191FF
:1025B000029820B9FFE701208DF80F001BE1019878
:1025C00042F20001C4F20201096801F007018842E9
:1025D00016D9FFE742F20000C4F20200016821F0C0
:1025E0000701019A11430160006800F0070001999A
:1025F000884204D0FFE701208DF80F00FBE0FFE7E1
:1026000002980078800700282AD5FFE70298007812
:102610004007002809D5FFE741F20401C4F2020196
:10262000086840F4E0600860FFE70298007800075F
:10263000002809D5FFE741F20401C4F2020108684D
:1026400040F460500860FFE741F20401C4F2020167
:10265000086820F0F000029A926810430860FFE7D3
:1026600002980078C007002860D0FFE70298406811
:1026700001280ED1FFE741F20000C4F20200006819
:102680008003002804D4FFE701208DF80F00B2E09A
:1026900021E00298406802280ED1FFE741F20000D5
:1026A000C4F2020000688001002804D4FFE7012082
:1026B0008DF80F009FE00DE041F20000C4F202002F
:1026C00000688007002804D4FFE701208DF80F0080
:1026D00091E0FFE7FFE741F20401C4F2020108685C
:1026E00020F00300029A526810430860FFF7F8FCDC
:1026F0000090FFE741F20400C4F20200006800F01D
:102700000C0002994968B0EB810F0ED0FFE7FFF78C
:10271000E7FC0099401A41F28931884204D3FFE76F
:1027200003208DF80F0066E0E4E7FFE7019842F22E
:102730000001C4F20201096801F00701884216D2C3
:10274000FFE742F20000C4F20200016821F0070135
:10275000019A11430160006800F007000199884266
:1027600004D0FFE701208DF80F0044E0FFE7029856
:102770000078400700280CD5FFE741F20401C4F2BD
:102780000201086820F4E060029AD26810430860F1
:10279000FFE702980078000700280DD5FFE741F217
:1027A0000401C4F20201086820F46050029A126920
:1027B00040EAC2000860FFE700F04CF841F2040173
:1027C000C4F202010968C9B20A0946F21441C0F60E
:1027D0000001895CC84040F20001C2F200010860BB
:1027E00040F20C00C2F200000068FFF7A1FC0020DC
:1027F0008DF80F00FFE79DF80F0004B080BD0000CA
:1028000040F20000C2F200000068704780B5FFF798
:10281000F7FF41F20401C4F202010968C1F3022288
:1028200046F22441C0F60001895CC84080BD00002A
:1028300080B5FFF7E5FF41F20401C4F20201096827
:10284000C1F3C22246F22441C0F60001895CC840AF
:1028500080BD000086B00020059004900390029097
:10286000019041F20400C4F202000068059005984E
:1028700000F00C000146009100283FD0FFE70098CF
:10288000042804D0FFE70098082806D037E041F27A
:102890000020C0F27A00019037E00598C0F3834130
:1028A00046F23E40C0F60000405C02909DF81600E3
:1028B000C007C0B1FFE741F20400C4F202000068A3
:1028C000C0F3404146F24E40C0F60000405C049028
:1028D000029841F20021C0F27A0148430499B0FB0A
:1028E000F1F0039007E0029840F60011C0F23D01BC
:1028F00048430390FFE70398019006E0FFE741F2A9
:102900000020C0F27A000190FFE7019806B07047FE
:1029100080B586B00490049820B9FFE701208DF8B7
:1029200017002EE304980078C007002800F0AE805E
:10293000FFE741F20400C4F20200006800F00C005E
:10294000042813D0FFE741F20400C4F2020000683B
:1029500000F00C0008281BD1FFE741F20400C4F28C
:1029600002000068C003002812D5FFE741F2000012
:10297000C4F2020000688003002808D5FFE704982D
:10298000406820B9FFE701208DF81700F9E27CE0EC
:10299000FFE704984068B0F5803F09D1FFE741F2B6
:1029A0000001C4F20201086840F48030086032E09F
:1029B0000498406868B9FFE741F20001C4F20201DF
:1029C000086820F480300860086820F480200860DF
:1029D00020E004984068B0F5A02F0DD1FFE741F248
:1029E0000001C4F20201086840F480200860086811
:1029F00040F4803008600CE041F20001C4F20201B2
:102A0000086820F480300860086820F4802008609E
:102A1000FFE7FFE7FFE7FFE704984068D0B1FFE773
:102A2000FFF75EFB0390FFE741F20000C4F20200F3
:102A30000068800300280CD4FFE7FFF751FB0399DF
:102A4000401A652804D3FFE703208DF8170098E2A9
:102A5000EAE719E0FFF744FB0390FFE741F20000CB
:102A6000C4F202000068800300280CD5FFE7FFF7DE
:102A700037FB0399401A652804D3FFE703208DF83C
:102A800017007EE2EAE7FFE7FFE7FFE70498007838
:102A90008007002840F18D80FFE741F20400C4F276
:102AA0000200006810F00C0F13D0FFE741F20400A1
:102AB000C4F20200006800F00C00082829D1FFE7EA
:102AC00041F20400C4F202000068C003002820D4D0
:102AD000FFE741F20000C4F202000068800700280E
:102AE00009D5FFE704980069012804D0FFE7012019
:102AF0008DF8170045E241F20001C4F202010868B6
:102B000020F0F800049A526940EAC2000860FFE72A
:102B10004EE00498006958B3FFE70021C4F2422157
:102B200001200860FFF7DCFA0390FFE741F20000A4
:102B3000C4F202000068800700280CD4FFE7FFF70A
:102B4000CFFA0399401A032804D3FFE703208DF836
:102B5000170016E2EAE741F20001C4F20201086838
:102B600020F0F800049A526940EAC20008601EE0B2
:102B70000021C4F2422100200860FFF7B1FA03905F
:102B8000FFE741F20000C4F202000068800700285D
:102B90000CD5FFE7FFF7A4FA0399401A032804D3E2
:102BA000FFE703208DF81700EBE1EAE7FFE7FFE717
:102BB000FFE7049800780007002848D5FFE704984D
:102BC000806918B3FFE740F28041C4F2422101203E
:102BD0000860FFF785FA0390FFE741F22400C4F292
:102BE00002000068800700280CD4FFE7FFF778FA9E
:102BF0000399401A032804D3FFE703208DF8170038
:102C0000BFE1EAE7012001F0ABFD1FE040F28041A7
:102C1000C4F2422100200860FFF762FA0390FFE748
:102C200041F22400C4F202000068800700280CD59D
:102C3000FFE7FFF755FA0399401A032804D3FFE78B
:102C400003208DF817009CE1EAE7FFE7FFE704980F
:102C500000784007002840F1D880FFE700208DF879
:102C6000070041F21C00C4F202000068C000002806
:102C700013D4FFE7FFE741F21C00C4F20200016831
:102C800041F080510160006800F080500090009891
:102C9000FFE701208DF80700FFE747F20000C4F2CC
:102CA00000000068C005002822D4FFE747F20001B9
:102CB000C4F20001086840F480700860FFF710FA61
:102CC0000390FFE747F20000C4F200000068C0056F
:102CD00000280CD4FFE7FFF703FA0399401A652890
:102CE00004D3FFE703208DF817004AE1EAE7FFE786
:102CF000FFE70498C068012809D1FFE741F22001ED
:102D0000C4F20201086840F00100086031E0049854
:102D1000C06868B9FFE741F22001C4F20201086807
:102D200020F001000860086820F0040008601FE03F
:102D30000498C06805280DD1FFE741F22001C4F2D4
:102D40000201086840F004000860086840F00100D3
:102D500008600CE041F22001C4F20201086820F092
:102D600001000860086820F004000860FFE7FFE742
:102D7000FFE7FFE70498C068E0B1FFE7FFF7B0F9AD
:102D80000390FFE741F22000C4F2020000688007D0
:102D900000280ED4FFE7FFF7A3F90399401A41F288
:102DA0008931884204D3FFE703208DF81700E8E05B
:102DB000E8E71BE0FFF794F90390FFE741F22000FA
:102DC000C4F202000068800700280ED5FFE7FFF775
:102DD00087F90399401A41F28931884204D3FFE709
:102DE00003208DF81700CCE0E8E7FFE79DF8070027
:102DF000012809D1FFE741F21C01C4F20201086871
:102E000020F080500860FFE7FFE70498C0690028C1
:102E100000F0B380FFE741F20400C4F20200006852
:102E200000F00C00082800F08280FFE70498C069D9
:102E300002285CD1FFE76021C4F242210020086033
:102E4000FFF74EF90390FFE741F20000C4F20200E1
:102E50000068800100280CD5FFE7FFF741F90399CE
:102E6000401A032804D3FFE703208DF8170088E0F9
:102E7000EAE70498006AB0F5803F0CD1FFE741F221
:102E80000401C4F20201086820F40030049A926838
:102E900010430860FFE741F20401C4F20201086830
:102EA00020F47410049B1A6A5B6A1A43104308608A
:102EB0006021C4F2422101200860FFF711F903905C
:102EC000FFE741F20000C4F2020000688001002820
:102ED0000CD4FFE7FFF704F90399401A032804D341
:102EE000FFE703208DF817004BE0EAE71EE06021C2
:102EF000C4F2422100200860FFF7F2F80390FFE7D8
:102F000041F20000C4F202000068800100280CD5E4
:102F1000FFE7FFF7E5F80399401A032804D3FFE71A
:102F200003208DF817002CE0EAE7FFE724E004987F
:102F3000C069012804D1FFE701208DF8170020E0C7
:102F400041F20400C4F2020000680290029800F40A
:102F500080300499096A884208D1FFE7029800F49A
:102F600070100499496A884204D0FFE701208DF867
:102F7000170006E0FFE7FFE7FFE700208DF81700E6
:102F8000FFE79DF8170006B080BD000080B586B051
:102F900004900391029200208DF80600ADF8040021
:102FA000049818B1FFE7039820B9FFE701208DF8D6
:102FB000170034E0049801A9002200F035F820B190
:102FC000FFE701208DF8170029E00498007B0399A2
:102FD00008700498008A039988800498407B0399BC
:102FE00048700498807B03998870029898B1FFE735
:102FF0000398007901F0E8FB0399888003984078F2
:1030000001F0E2FB039948700398807801F0DCFB43
:1030100003998870FFE700208DF81700FFE79DF8FF
:10302000170006B080BD000080B588B006900591FD
:10303000049200200390029001900090069818B12D
:10304000FFE7059820B9FFE701208DF81F00BDE0DC
:103050000698006840684007002803D5FFE7012074
:1030600018B906E0012020B9FFE701208DF81F0004
:10307000ACE0069801F02EFD039003994BF2C530A9
:10308000C9F2A210A1FB0021C90A0091039BA3FB76
:103090000021C90A4FF4616201FB123344F2454139
:1030A000C0F24441A3FB01C3DDF814C08CF8013029
:1030B000039BA3FB00C0C00A00FB1230A0FB012150
:1030C000C1EB0111A0EB81000599887000981828C8
:1030D0005ED3FFE700984AF6AB21CAF6AA21A0FB0F
:1030E0000120000901900098A0FB0121090901EBD2
:1030F0004101A0EBC10005990870069801F0D0FCD1
:1031000002900298013050B1FFE70298039988427B
:1031100005D9FFE703990298401A029003E04FF0A7
:10312000FF300290FFE7019840F2A321414303984A
:10313000A0EBC11003900698039901F099FD20B10E
:10314000FFE701208DF81F0040E00298013078B1C0
:10315000FFE703990298084402900698029901F04B
:103160005FFD20B1FFE701208DF81F002EE00AE08F
:103170000698029901F054FD20B1FFE701208DF877
:103180001F0023E0FFE70698019901F03BFB03E0F5
:10319000009805990870FFE7049898B1FFE7059833
:1031A000007801F011FB059908700598407801F04E
:1031B0000BFB059948700598807801F005FB05998F
:1031C0008870FFE700208DF81F00FFE79DF81F00C3
:1031D00008B080BD80B584B00290002001900298B4
:1031E00020B9FFE701208DF80F0084E00298C07C31
:1031F00038B9FFE7029900208874029800F080F83F
:10320000FFE702990220C874029800F001FA38B171
:10321000FFE702990420C87401208DF80F006AE0CE
:10322000029801F0A9FB38B1FFE702990420C874A5
:1032300001208DF80F005EE002980168486820F0D8
:10324000070048600298806848B1FFE746F63041C1
:10325000C4F20001086820F001000860FFE746F6AC
:103260002C41C4F20001086820F46070029A926850
:103270001043086002984068013020B1FFE70298CF
:103280004068019012E00120FEF7DEFF01900198F6
:1032900038B9FFE702990420C87401208DF80F00A7
:1032A00029E0019801380190FFE7FFE7BDF806002B
:1032B00000F00F00029909688860BDF804000299C7
:1032C0000968C860029801F083FB38B1FFE70299F2
:1032D0000420C87401208DF80F000CE00299002032
:1032E0000882029A01215173029A9173029AD17451
:1032F0008DF80F00FFE79DF80F0004B080BD0000BF
:1033000080B582B001900198006842F60001C4F2D5
:103310000001884218D1FFE7FEF790FFFFE741F276
:103320001C00C4F20200016841F000610160006805
:1033300000F0006000900098FFE740F23C41C4F2CA
:10334000422101200860FFE702B080BD80B588B04F
:103350000690059104920020039002900190069837
:1033600018B1FFE7059820B9FFE701208DF81F008D
:10337000A7E0FFE70698807C012804D1FFE7022040
:103380008DF81F009DE0069901208874FFE7FFE794
:1033900006990220C874049868B9FFE705988088E8
:1033A00006990882059840780699487305988078B0
:1033B0000699887312E00598007901F0EFF90699F3
:1033C00008820598407801F0E9F906994873059854
:1033D000807801F0E3F906998873FFE7069A108A6E
:1033E000517B927B01F0ACFB069908730698007B39
:1033F00005990870069801F06DFB039003984BF255
:10340000C531C9F2A211A0FB0110C00A01900198B8
:1034100019284AD3FFE701984AF6AB21CAF6AA2138
:10342000A0FB0110000940F2A32141430398A0EB47
:10343000C11003900698039901F01AFC60B1FFE7F0
:1034400006990420C874FFE7069900208874FFE7F6
:1034500001208DF81F0034E0069801F021FB029056
:103460000298013000B3FFE70298039988421AD20C
:10347000FFE7029845F28011C0F201010844029072
:103480000698029901F0CCFB60B1FFE70699042091
:10349000C874FFE7069900208874FFE701208DF8C3
:1034A0001F000EE0FFE7FFE7FFE706990120C87461
:1034B000FFE7069900208874FFE700208DF81F00C1
:1034C000FFE79DF81F0008B080BD000080B588B000
:1034D000069005910492002003900290069818B17E
:1034E000FFE7059820B9FFE701208DF81F008AE06B
:1034F000FFE70698807C012804D1FFE702208DF8C1
:103500001F0080E0069901208874FFE7FFE7069915
:103510000220C874049870B9FFE7059908784A78C2
:1035200089784FF461635843C2EB021200EB8200CA
:10353000084403901BE00598007801F02FF94FF440
:103540006161484300900598407801F027F90146F1
:103550000098C1EB011100EB810001900598807883
:1035600001F01CF90146019808440390FFE7069812
:10357000039901F07DFB60B1FFE706990420C87450
:10358000FFE7069900208874FFE701208DF81F00EF
:1035900039E006980168486820F005004860069800
:1035A00001F07EFA02900298013000B3FFE7029822
:1035B000039988421AD2FFE7029845F28011C0F2BF
:1035C0000101084402900698029901F029FB60B1BC
:1035D000FFE706990420C874FFE706990020887465
:1035E000FFE701208DF81F000DE0FFE7FFE70699D8
:1035F0000120C874FFE7069900208874FFE70020C7
:103600008DF81F00FFE79DF81F0008B080BD000087
:1036100080B584B0029000200190029820B9FFE7A5
:1036200001208DF80F0021E002980168486820F021
:1036300008004860FEF754FD0190FFE7029800681B
:103640004068000700280DD4FFE7FEF749FD019907
:10365000401AB0F57A7F04D9FFE703208DF80F00F8
:1036600004E0EBE700208DF80F00FFE79DF80F0066
:1036700004B080BD80B582B00190019801F060FB7C
:1036800002B080BD81B0009001B0704781B0009061
:1036900001B0704785B003900291FFE7039890F85E
:1036A0003C00012804D1FFE702208DF813005BE005
:1036B0000399012081F83C00FFE7FFE7039902200E
:1036C00081F83D0003980068406801900398006805
:1036D00080680090019820F07000019002980168C5
:1036E000019808430190019803990968486003987C
:1036F000006842F60041C4F20101884218D0FFE799
:1037000003980068B0F1804F12D0FFE7039800687B
:1037100040F20041C4F20001884209D0FFE703985B
:10372000006840F60001C4F2000188420ED1FFE7B4
:10373000009820F0800000900298416800980843AB
:1037400000900098039909688860FFE703990120B9
:1037500081F83D00FFE70399002081F83C00FFE776
:1037600000208DF81300FFE79DF8130005B07047A7
:1037700080B582B00090009820B9FFE701208DF855
:1037800007003FE0009890F83D0040B9FFE700993E
:10379000002081F83C00009800F038F8FFE700991D
:1037A000022081F83D00009951F8040B01F04AFB1A
:1037B0000099012081F84600FFE70099012081F877
:1037C0003E00009981F83F00009981F8400000997F
:1037D00081F84100FFE7FFE70099012081F84200EE
:1037E000009981F84300009981F84400009981F81C
:1037F0004500FFE70099012081F83D0000208DF889
:103800000700FFE79DF8070002B080BD80B584B0D7
:10381000039003980068B0F1804F19D1FFE7FFE7EC
:1038200041F21C00C4F20200016841F00101016094
:10383000006800F0010002900298FFE71C20019050
:1038400000221146FEF7D8FC0198FEF7CBFCFFE7FB
:1038500004B080BD81B0009000980168C86820F075
:103860000100C860FFE700980068006A41F211118A
:10387000084210D1FFE700980068006A40F2444116
:10388000084207D1FFE700980168086820F00100AE
:103890000860FFE7FFE7FFE70099012081F83D009E
:1038A000002001B07047000080B586B004900391FD
:1038B00000208DF80B00FFE7049890F83C000128E9
:1038C00004D1FFE702208DF81700ABE00499012036
:1038D00081F83C00FFE7FFE70499022081F83D00F2
:1038E0000498006880680190019820F077000190AA
:1038F000019820F47F40019001980499096888603C
:10390000039800680090002872D0FFE70098102804
:103910006ED0FFE7009820286AD0FFE70098302893
:1039200066D0FFE70098402855D0FFE70098502860
:1039300037D0FFE70098602840D0FFE70098702854
:103940000BD0FFE70098B0F5805F05D0FFE7009847
:10395000B0F5005F16D052E055E004980068039B74
:103960005A689968DB6801F0F1FA04980068806889
:103970000190019840F0770001900198049909683E
:10398000886040E004980068039B5A689968DB6887
:1039900001F0DCFA04980168886840F4804088608F
:1039A00031E004980068039A5168D26801F0FEFA89
:1039B00004980068502101F0E3FA24E004980068BC
:1039C000039A5168D26801F019FB049800686021DD
:1039D00001F0D6FA17E004980068039A5168D2689B
:1039E00001F0E4FA04980068402101F0C9FA0AE005
:1039F000049800680399096801F0C2FA03E0012005
:103A00008DF80B00FFE70499012081F83D00FFE7E6
:103A10000499002081F83C00FFE79DF80B008DF829
:103A20001700FFE79DF8170006B080BD81B0009039
:103A300001B0704780B584B0039003980068C068F7
:103A4000029003980068006901909DF804008007C7
:103A5000002824D5FFE79DF80800800700281DD521
:103A6000FFE7039801686FF00200086103990120E5
:103A70000877039800688069800720B1FFE7039802
:103A8000FFF7D4FF06E0039800F0E2F8039800F097
:103A9000E3F8FFE7039900200877FFE7FFE79DF8C9
:103AA00004004007002825D5FFE79DF808004007DF
:103AB00000281ED5FFE7039801686FF00400086135
:103AC00003990220087703980068806910F4407F0A
:103AD00004D0FFE70398FFF7A9FF06E0039800F082
:103AE000B7F8039800F0B8F8FFE7039900200877CB
:103AF000FFE7FFE79DF804000007002824D5FFE753
:103B00009DF80800000700281DD5FFE7039801680D
:103B10006FF0080008610399042008770398006893
:103B2000C069800720B1FFE70398FFF77FFF06E039
:103B3000039800F08DF8039800F08EF8FFE70399E2
:103B400000200877FFE7FFE79DF80400C006002883
:103B500025D5FFE79DF80800C00600281ED5FFE721
:103B6000039801686FF01000086103990820087736
:103B700003980068C06910F4407F04D0FFE7039801
:103B8000FFF754FF06E0039800F062F8039800F096
:103B900063F8FFE7039900200877FFE7FFE79DF848
:103BA0000400C00778B1FFE79DF80800C00748B1DE
:103BB000FFE7039801686FF001000861039800F0C7
:103BC0004FF8FFE7FFE79DF804000006002810D536
:103BD000FFE79DF808000006002809D5FFE70398D5
:103BE00001686FF0800008610398FFF74BFDFFE765
:103BF000FFE79DF804004006002810D5FFE79DF878
:103C000008004006002809D5FFE7039801686FF017
:103C100040000861039800F037F8FFE7FFE79DF8E0
:103C200004008006002810D5FFE79DF808008006F4
:103C3000002809D5FFE7039801686FF020000861AC
:103C40000398FFF723FDFFE7FFE704B080BD000006
:103C500081B0009001B0704781B0009001B0704712
:103C600080B582B0019001980068B0F1804F09D111
:103C7000FFE701F0FBFE40F26010C2F20000FFF728
:103C8000E9FDFFE702B080BD81B0009001B0704750
:103C900080B586B004900391ADF80A20049890F89E
:103CA0004200202848D1FFE7039820B1FFE7BDF884
:103CB0000A0020B9FFE701208DF8170040E00499C1
:103CC0000120086304990020486304980399BDF813
:103CD0000A2001F077FC8DF809000498006B012898
:103CE00021D1FFE7FFE700200190049800680068F9
:103CF000019004980068406801900198FFE7FFE791
:103D0000FFE70498006850E8030F40F010000090AF
:103D1000FFE700990498026842E803100028F0D1F8
:103D2000FFE7FFE703E001208DF80900FFE79DF8BA
:103D300009008DF8170003E002208DF81700FFE757
:103D40009DF8170006B080BD82B00190ADF802105A
:103D50000198006843F60001C4F20101884201D1D4
:103D6000FFE7FFE702B0704781B0009001B07047F5
:103D700080B592B011901198006800681090119869
:103D80000068C0680F901198006840690E9000208C
:103D90000D900C90109800F00F000D900D9888B9C0
:103DA000FFE79DF84000800600280AD5FFE79DF850
:103DB0003C008006002804D5FFE7119801F0EEFAD8
:103DC000E9E1FFE70D98002800F0C280FFE79DF8C9
:103DD0003800C00738B9FFE7BDF83C0010F4907F09
:103DE00000F0B680FFE79DF84000C00758B1FFE73C
:103DF0009DF83D00C00730B1FFE71199486C40F0D5
:103E000001004864FFE79DF84000400700280BD5FB
:103E1000FFE79DF83800C00730B1FFE71199486C03
:103E200040F002004864FFE79DF84000800700284A
:103E30000BD5FFE79DF83800C00730B1FFE71199B7
:103E4000486C40F004004864FFE79DF8400000071C
:103E5000002811D5FFE79DF83C008006002805D416
:103E6000FFE79DF83800C00730B1FFE71199486CB3
:103E700040F008004864FFE71198406C002866D0C5
:103E8000FFE79DF84000800600280AD5FFE79DF86F
:103E90003C008006002804D5FFE7119801F07EFA67
:103EA000FFE7119800684069C0F380100C901198EA
:103EB000406C0007002804D4FFE70C9800283ED08F
:103EC000FFE7119801F0F0F9119800684069400689
:103ED00000282FD5FFE7FFE7FFE71198006850E8BB
:103EE000050F20F040000B90FFE70B991198026836
:103EF00042E805100028F0D1FFE7FFE71198C06BFA
:103F000098B1FFE71198C16B45F25100C0F600006F
:103F100048631198C06BFDF759FC28B1FFE7119871
:103F2000C06B416B8847FFE703E01198FFF71CFF68
:103F3000FFE703E01198FFF717FFFFE706E011988E
:103F4000FFF712FF119900204864FFE7FFE722E125
:103F50001198006B012840F0FE80FFE79DF84000BB
:103F6000C006002840F1F780FFE79DF83C00C0063E
:103F7000002840F1F080FFE7FFE700200A90119849
:103F8000006800680A901198006840680A900A98D2
:103F9000FFE71198006840694006002840F18180E1
:103FA000FFE71198C06B00684068ADF82600BDF8C7
:103FB0002600002874D0FFE7BDF826001199898DEE
:103FC00088426DDAFFE7BDF826001199C88511987F
:103FD000C06B8069202858D0FFE7FFE7FFE7119802
:103FE000006850E8030F20F480700890FFE70899FC
:103FF0001198026842E803100028F0D1FFE7FFE7BC
:10400000FFE7FFE71198006850E8050F20F0010076
:104010000790FFE707991198026842E80510002809
:10402000F0D1FFE7FFE7FFE7FFE71198006850E8EE
:10403000050F20F040000690FFE7069911980268EE
:1040400042E805100028F0D1FFE7FFE71199202092
:1040500081F84200119900200863FFE7FFE71198FB
:10406000006850E8030F20F010000590FFE7059965
:104070001198026842E803100028F0D1FFE7FFE73B
:104080001198C06BFDF764FBFFE7119902204863AC
:104090001198818DC28D891A89B2FFF755FEFFE70D
:1040A00079E01199888DC98D401AADF812001198E8
:1040B000C08D00284ED0FFE7BDF81200002849D07F
:1040C000FFE7FFE7FFE71198006850E8030F20F4CF
:1040D00090700390FFE703991198026842E803107B
:1040E0000028F0D1FFE7FFE7FFE7FFE7119800683E
:1040F00050E8050F20F001000290FFE702991198A7
:10410000026842E805100028F0D1FFE7FFE71199A7
:10411000202081F84200119900200863FFE7FFE7A3
:104120001198006850E8030F20F010000190FFE79D
:1041300001991198026842E803100028F0D1FFE7C6
:10414000FFE71199022048631198BDF81210FFF79C
:10415000FBFDFFE71FE09DF84000000600280AD5A0
:10416000FFE79DF83C000006002804D5FFE7119802
:1041700001F0AEFA0FE09DF84000400600280AD595
:10418000FFE79DF83C004006002804D5FFE71198A2
:1041900001F0D4F8FFE712B080BD000080B582B016
:1041A0000090009820B9FFE701208DF8070040E05B
:1041B0000098806908B1FFE700E0FFE7009890F8F9
:1041C000410040B9FFE70099002081F840000098C5
:1041D00000F034F8FFE70099242081F841000098AE
:1041E0000168C86820F40050C860009801F08CF99C
:1041F00000980168086920F49040086100980168FF
:10420000486920F02A00486100980168C86840F4B5
:104210000050C860009900204864009A202182F86C
:104220004110009A82F84210009948638DF8070007
:10423000FFE79DF8070002B080BD000080B58CB09C
:104240000B9000200A900990089007900B98006846
:1042500043F60001C4F20101884267D1FFE7FFE79E
:1042600041F21800C4F20200016841F4804101608B
:10427000006800F4804006900698FFE7FFE741F2EF
:104280001800C4F20200016841F0040101600068F6
:1042900000F0040005900598FFE74FF400700790C8
:1042A0000220089003200A9040F60000C4F20100AA
:1042B000019007A90291FDF753FD019802994FF46F
:1042C000806207920022039208920992FDF748FD4E
:1042D000039940F20810C2F2000004904422C4F294
:1042E000020202601022426081608022C26001618D
:1042F00041618161C161FDF73BFC18B1FFE7FDF74A
:104300001FFAFFE7FFE70B9840F20811C2F2000125
:1043100081630B984862FFE7252000900022114638
:10432000FDF76AFF0098FDF75DFFFFE70CB080BD69
:1043300081B0009001B0704781B0009001B070472B
:1043400080B586B004900391ADF80A20049890F8E7
:10435000410020285DD1FFE7039820B1FFE7BDF8B9
:104360000A0020B9FFE701208DF8170055E00398F7
:1043700004990862BDF80A0004998884BDF80A000F
:104380000499C884049900204864049A212182F881
:10439000411004998A6B45F21521C0F60001916223
:1043A00004998A6B45F29121C0F60001D16204990B
:1043B0008A6B45F27101C0F6000111630499896BA3
:1043C000486303A8019004980268806B019909680A
:1043D0000432BDF80A30FDF723FC049801686FF041
:1043E00040000860FFE7FFE70498006850E8050F09
:1043F00040F080000090FFE700990498026842E8CE
:1044000005100028F0D1FFE7FFE700208DF8170026
:1044100003E002208DF81700FFE79DF8170006B0B3
:1044200080BD000081B000900098006843F6000154
:10443000C4F20101884201D1FFE7FFE701B07047F4
:1044400081B0009001B07047FFE7FEE780B586B00D
:10445000FFE741F21400C4F20200016841F00101DB
:104460000160006800F0010005900598FFE740F248
:10447000C400C2F2000004905821C4F2020101609D
:104480000021416081608022C260016141618161DF
:10449000C161FDF76DFBFFE740F2A810C2F200001A
:1044A00040F2C401C2F20001C1634862FFE740F27A
:1044B0000810C2F2000003904421C4F2020101601E
:1044C00010214160002181608022C2600161416150
:1044D0008161C161FDF74CFBFFE740F2A810C2F219
:1044E000000040F20811C2F2000181634862FFE758
:1044F0000F200090002201921146FDF77DFE0098EA
:10450000FDF770FE019A0E2002901146FDF774FE31
:104510000298FDF767FE06B080BD000080B58EB042
:1045200000200D900C900B900A90FFE741F21800CC
:10453000C4F20200016841F020010160006800F04F
:10454000200009900998FFE7FFE741F21800C4F244
:104550000200016841F004010160006800F00400FD
:1045600008900898FFE7FFE741F21800C4F2020044
:10457000016841F008010160006800F00800079040
:104580000798FFE740F60040C4F2010002904FF4A4
:104590008061019101220392FDF78AFD019A029840
:1045A00003990A920B91002205920C920D910AA98F
:1045B0000491FDF7D5FB0398049920220A9200226A
:1045C000C1F221020B920C9040F60000C4F20100EF
:1045D000FDF7C6FB059A172006901146FDF70CFE65
:1045E0000698FDF7FFFD0EB080BD000080B540F2DB
:1045F0004C10C2F2000042F60001C4F2000101605A
:104600004FF0FF3141604FF480718160FEF7E2FDB1
:1046100018B1FFE7FDF794F8FFE780BD80B588B0DB
:104620000021019107910691059104910391029156
:1046300040F26010C2F200004FF08042026044F28B
:1046400050624260816040F2CF72C260016181615C
:10465000FFF78EF818B1FFE7FDF772F8FFE74FF4A8
:104660008050049040F26010C2F2000004A9FFF7ED
:104670001BF918B1FFE7FDF763F8FFE70020029090
:10468000039040F26010C2F2000002686FF0010176
:10469000116102A9FEF7FEFF18B1FFE7FDF750F820
:1046A000FFE708B080BD000080B582B040F2A810DE
:1046B000C2F20000019043F60001C4F20101016062
:1046C0004FF4E131416000218160C16001610C2241
:1046D00042618161C161FFF761FD18B1FFE7FDF73C
:1046E0002FF8FFE702B080BDFFE7FEE7FFE7FEE738
:1046F00088B0079006910592079800F00700049093
:104700000498C0F10700052803D3FFE704200190B7
:1047100004E00498C0F107000190FFE701980390BE
:1047200004980430062803D8FFE70020009003E037
:10473000049803380090FFE70098029006980399C8
:10474000012202FA01F101390840029B98400599C3
:104750009A40013A1140084308B070477047000082
:1047600082B00190019840F20001C2F20001096894
:10477000C90844F6D352C1F26202A1FB02218909A1
:1047800048430090FFE700BFFFE70098411E0091FB
:104790000028F8D1FFE702B07047000082B08DF822
:1047A0000700002000909DF80700000900EB800042
:1047B0004000009000989DF8071001F00F01084498
:1047C000C0B202B07047000082B08DF80700002030
:1047D0000090FFE79DF807000A2809D3FFE700983B
:1047E000013000909DF807000A388DF80700F1E7C6
:1047F000009800F00F019DF8070040EA011002B098
:104800007047000080B586B00590049100200390A9
:104810000290019000900599098A03910599497BBE
:1048200002910599897B01910090FFE70098049916
:10483000884280F08C80FFE70298012818D0FFE7BB
:104840000298032814D0FFE70298052810D0FFE74C
:10485000029807280CD0FFE70298082808D0FFE745
:1048600002980A2804D0FFE702980C281BD1FFE722
:1048700001981E2804D8FFE701980130019011E04B
:1048800002980C2806D0FFE7029801300290012020
:10489000019006E0012002900190039801300390FE
:1048A000FFE7FFE74EE0029804280CD0FFE70298EC
:1048B000062808D0FFE70298092804D0FFE70298ED
:1048C0000B280FD1FFE701981D2804D8FFE70198B6
:1048D0000130019005E00298013002900120019022
:1048E000FFE72EE0029802282AD1FFE701981B2853
:1048F00004D8FFE701980130019020E001981C28BE
:1049000011D1FFE7BDF80C0000F08EF820B1FFE7F1
:1049100001980130019005E00298013002900120D9
:104920000190FFE70AE001981D2806D1FFE70298F1
:104930000130029001200190FFE7FFE7FFE7FFE76A
:10494000FFE7FFE7FFE70098013000906EE703986C
:10495000059908820298059948730198059988730A
:1049600003989DF808109DF8042000F0E9F80599D7
:10497000087306B080BD000080B584B002900020AE
:104980000190FDF7ADFB0190FFE7029800684068D9
:10499000800600280DD4FFE7FDF7A2FB0199401A1D
:1049A000B0F57A7F04D9FFE703208DF80F000AE005
:1049B000EBE702980168486840F01000486000206A
:1049C0008DF80F00FFE79DF80F0004B080BD0000D8
:1049D00080B584B002900020019002980168486878
:1049E00020F010004860FDF77BFB0190FFE7029884
:1049F00000684068800600280DD4FFE7FDF770FBD3
:104A00000199401AB0F57A7F04D9FFE703208DF8A9
:104A10000F0004E0EBE700208DF80F00FFE79DF8A2
:104A20000F0004B080BD000081B0ADF800009DF81B
:104A30000000800720B1FFE700208DF803002BE085
:104A4000BDF8000045F62941CCF28F2148434FEADA
:104A5000B00045F62941C0F28F21884204D3FFE718
:104A600001208DF8030017E0BDF8000045F629414C
:104A7000CCF28F2148434FEA30104DF20A71C0F258
:104A8000A301884204D8FFE701208DF8030003E06A
:104A900000208DF80300FFE79DF8030001B0704788
:104AA00082B001900020ADF80200ADF8000001983E
:104AB0000068006AADF8020001980068406AADF82D
:104AC0000000BDF80210BDF8000040EA014002B04D
:104AD0007047000084B003900020ADF80A00ADF8E4
:104AE0000800ADF806000090039800688069ADF8F2
:104AF0000A0003980068C069ADF8060003980068D2
:104B00008069ADF80800BDF80A00BDF808108842B9
:104B10000AD0FFE7BDF8081003980068C06980B2AA
:104B200040EA0140009007E0BDF80A10BDF8060019
:104B300040EA01400090FFE7009804B07047000091
:104B400084B003908DF80B108DF80A20002001909E
:104B50000090039800F5FA6001909DF80B00022880
:104B60002DD8FFE79DF80B00172148434CF21D712B
:104B7000C1F67141A0FB01109DF80A10084401998B
:104B80000844013900EB910048F21F52C5F2EB12C4
:104B9000A1FB0221A0EB511000EBD110043044F630
:104BA0002511C2F29241A0FB0121421A01EB5202EF
:104BB0009108C900A1EB9201401A00902BE09DF8EA
:104BC0000B00172148434CF21D71C1F67141A0FB47
:104BD00001109DF80A1008440199084400EB910067
:104BE00048F21F52C5F2EB12A1FB0221A0EB5110BB
:104BF00000EBD110023044F62511C2F29241A0FB25
:104C00000121421A01EB52029108C900A1EB920165
:104C1000401A0090FFE79DF8000004B070470000C4
:104C200080B584B00390029100208DF807000398AE
:104C3000FFF7A2FE20B1FFE701208DF8070013E087
:104C4000BDF80A00039909680862BDF808000399D5
:104C5000096848620398FFF7BBFE20B1FFE7012017
:104C60008DF80700FFE7FFE79DF8070004B080BD5F
:104C700080B584B00390029100208DF8070003985E
:104C8000FFF77AFE20B1FFE701208DF8070013E05F
:104C9000BDF80A00039909688861BDF80800039906
:104CA0000968C8610398FFF793FE20B1FFE7012070
:104CB0008DF80700FFE7FFE79DF8070004B080BD0F
:104CC00010B584B08C468646079806998DF80FE09B
:104CD0008DF80EC08DF80D20ADF80A308DF8091052
:104CE0008DF808009DF80F0040F21421C2F2000177
:104CF00008709DF80E0048709DF80D00887040F215
:104D00004C10C2F20000019000220092FEF7DEFB80
:104D1000009A0198BDF80A1001F26C7340F20E215E
:104D2000C2F200018B809DF8093001334B709DF871
:104D300008308B70FEF70AFB04B010BD704700000E
:104D400080B582B0009000980138B0F1807F03D325
:104D5000FFE70120019019E0009801384EF214019C
:104D6000CEF2000108604FF0FF300F2100F024FD6B
:104D70004EF21801CEF20001002008604EF210023F
:104D8000CEF20002072111600190FFE7019802B006
:104D900080BD000080B5FDF7A9F980BD80B596B053
:104DA0000CA801902821FBF734FB01980022029205
:104DB0000B920A9209920892079206920592049227
:104DC000039209210C914FF480310D910E92012232
:104DD000109212920222139214914FF4E011159145
:104DE000FDF796FD18B1FFE7FCF7AAFCFFE70F20DF
:104DF000079002210891002009904FF480620A92E6
:104E00000B9007A8FDF7D0FB18B1FFE7FCF798FC63
:104E1000FFE7012003904FF40070049003A8FDF712
:104E2000DFFA18B1FFE7FCF78BFCFFE716B080BD97
:104E30007047000080B540F26010C2F20000FEF73B
:104E4000F9FD80BD83B00290019102980068009046
:104E5000029842F60041C4F20101884215D0FFE7F2
:104E60000298B0F1804F10D0FFE7029840F2004165
:104E7000C4F20001884208D0FFE7029840F6000122
:104E8000C4F2000188420AD1FFE7009820F07000C8
:104E9000009001984168009808430090FFE702984D
:104EA00042F60041C4F20101884215D0FFE70298A2
:104EB000B0F1804F10D0FFE7029840F20041C4F2F9
:104EC0000001884208D0FFE7029840F60001C4F2D2
:104ED000000188420AD1FFE7009820F4407000905A
:104EE0000198C168009808430090FFE7009820F0FF
:104EF0008000019949690843009000980299086070
:104F0000019880680299C8620198006802998862D5
:104F1000029842F60041C4F20101884205D1FFE740
:104F20000198006902990863FFE70299012048612E
:104F300002980069C00730B1FFE70299086920F0C4
:104F400001000861FFE703B07047000085B00490DE
:104F5000039102920193049880680090009820F4D5
:104F60007F40009003980299019A41EA022101438F
:104F700000980843009000980499886005B0704735
:104F800083B002900191029880680090009820F010
:104F90007000009001980099084340F007000090CD
:104FA00000980299886003B07047000085B00490B3
:104FB000039102920498006A00900499086A20F014
:104FC00001000862049880690190019820F0F000C7
:104FD00001900299019840EA01100190009820F098
:104FE0000A000090039900980843009001980499E2
:104FF000886100980499086205B0704785B00490F4
:10500000039102920498006A00900499086A20F0C3
:1050100010000862049880690190019820F47040A3
:1050200001900299019840EA01300190009820F027
:10503000A00000900399009840EA011000900198A8
:105040000499886100980499086205B070470000CF
:1050500080B582B001900198406A009000990020CC
:10506000C8850099C8840098FEF77EFE02B080BD16
:1050700080B584B00390002002900398406A0190AC
:10508000019800684069C0B2C0090290019890F888
:10509000410021280AD1FFE7029838B1FFE70199C2
:1050A0000020C884019800F05DF9FFE701980068CE
:1050B0004069C0F380100290019890F842002228C5
:1050C0000AD1FFE7029838B1FFE701990020C885AF
:1050D000019800F0E9F8FFE70199486C40F01000F2
:1050E00048640198FEF740FE04B080BD80B586B0EC
:1050F00005900598406A049005980068006880064D
:1051000000285AD4FFE704990020C885FFE7FFE78D
:105110000498006850E8030F20F480700390FFE7C4
:1051200003990498026842E803100028F0D1FFE7D1
:10513000FFE7FFE7FFE70498006850E8050F20F05D
:1051400001000290FFE702990498026842E8051006
:105150000028F0D1FFE7FFE7FFE7FFE704980068CA
:1051600050E8050F20F040000190FFE701990498F6
:10517000026842E805100028F0D1FFE7FFE7049934
:10518000202081F842000498006B012814D1FFE729
:10519000FFE7FFE70498006850E8030F20F01000D5
:1051A0000090FFE700990498026842E80310002885
:1051B000F0D1FFE7FFE7FFE7FFE70499002048632E
:1051C0000498006B012805D1FFE70498818DFEF754
:1051D000BBFD03E00498FFF7ABF8FFE706B080BD26
:1051E00080B582B001900198406A0090009901203A
:1051F00048630098006B012806D1FFE70098818D75
:105200004908FEF7A1FD03E00098FFF795F8FFE7D6
:1052100002B080BD80B584B003900398406A0290CC
:10522000039800680068800600282AD4FFE70299E6
:105230000020C884FFE7FFE70298006850E8050FE8
:1052400020F080000190FFE701990298026842E88F
:1052500005100028F0D1FFE7FFE7FFE7FFE702981E
:10526000006850E8030F40F040000090FFE700990D
:105270000298026842E803100028F0D1FFE7FFE738
:1052800003E00298FFF7CEF8FFE704B080BD00000E
:1052900080B582B001900198406A00900098FFF7B5
:1052A000CFF802B080BD000084B00390FFE7FFE7B5
:1052B0000398006850E8030F20F490700290FFE715
:1052C00002990398026842E803100028F0D1FFE732
:1052D000FFE7FFE7FFE70398006850E8050F20F0BD
:1052E00001000190FFE701990398026842E8051068
:1052F0000028F0D1FFE7FFE70398006B012814D1E5
:10530000FFE7FFE7FFE70398006850E8030F20F08E
:1053100010000090FFE700990398026842E803102C
:105320000028F0D1FFE7FFE7FFE70399202081F88D
:10533000420003990020086304B0704780B582B032
:10534000019001980168C86820F04000C860019988
:10535000202081F841000198FFF764F8002002B096
:1053600080BD000082B00190FFE7FFE70198006870
:1053700050E8030F20F0C0000090FFE7009901986B
:10538000026842E803100028F0D1FFE7FFE7019927
:10539000202081F8410002B07047000080B586B03F
:1053A0000490049890F84200222840F0A480FFE77F
:1053B00004988068B0F5805F15D1FFE70498006914
:1053C00088B9FFE7002003900498806A029004984F
:1053D000006840686FF35F20029908800499886A2A
:1053E0000230886225E00498806A039000200290D1
:1053F00004988068B0F5805F08D0FFE70498806863
:1054000050B9FFE70498006930B9FFE704980068D5
:1054100040680399087007E004980068406800F04D
:105420007F0003990870FFE70499886A0130886259
:10543000FFE70499C88D0138C8850004002856D1BB
:10544000FFE704980168C86820F02000C86004984D
:105450000168C86820F48070C860049801684869D1
:1054600020F0010048610499202081F8420004994D
:10547000002048630498006B012830D1FFE70499AD
:1054800000200863FFE7FFE70498006850E8030F77
:1054900020F010000190FFE701990498026842E8AB
:1054A00003100028F0D1FFE7FFE7049800680068C8
:1054B000C00600280ED5FFE7FFE700200090049803
:1054C00000680068009004980068406800900098A8
:1054D000FFE7FFE70498818DFEF736FC03E00498B0
:1054E000FEF726FFFFE700208DF8170007E00020F9
:1054F0008DF8170003E002208DF81700FFE79DF8F4
:10550000170006B080BD000080B584B003900398FA
:105510000068006920F44050039A1168D268104373
:105520000861039988680A69496910430843029031
:1055300003980068C06841F20C61884302990843EF
:1055400003990968C86003980068406920F44070B6
:10555000039A11689269104348610398006843F602
:105560000001C4F20101884204D1FFE7FDF760F9B0
:10557000019003E0FDF74AF90190FFE70198192136
:105580004843039A116852689200B0FBF2FC48F25B
:105590001F52C5F2EB12ACFB02304309642003FB3F
:1055A00010CC322000EB0C10A0FB0202F02000EA2D
:1055B000521000EB0310C2F343121044886004B091
:1055C00080BD000080B588B007900691ADF8162028
:1055D000069807998862BDF816000799888507998B
:1055E00000204864079A222182F842100799CA6B6A
:1055F00045F2ED01C0F6000191620799CA6B45F2D0
:10560000E111C0F60001D1620799CA6B45F2710140
:10561000C0F6000111630799C96B486306A804909E
:1056200007980168C06B0431049A1268BDF81630FF
:10563000FCF7F6FAFFE7002003900798006800687F
:10564000039007980068406803900398FFE7079865
:105650000069A0B1FFE7FFE7FFE70798006850E89F
:10566000030F40F480700290FFE7029907980268E8
:1056700042E803100028F0D1FFE7FFE7FFE7FFE76C
:10568000FFE70798006850E8050F40F0010001901F
:10569000FFE701990798026842E805100028F0D159
:1056A000FFE7FFE7FFE7FFE70798006850E8050F0F
:1056B00040F040000090FFE700990798026842E838
:1056C00005100028F0D1FFE7FFE7002008B080BDFB
:1056D00083B00190019890F8410021283AD1FFE76A
:1056E00001988068B0F5805F13D1FFE701980069E9
:1056F00078B9FFE70198006A0090009800886FF37E
:105700005F200199096848600199086A02300862BF
:1057100008E0019A106A411C116200780199096839
:105720004860FFE70199C88C0138C884000468B953
:10573000FFE701980168C86820F08000C860019800
:105740000168C86840F04000C860FFE700208DF89D
:105750000B0003E002208DF80B00FFE79DF80B0023
:1057600003B0704780B540F2A810C2F20000FEF707
:10577000FFFA80BDFFE7FEE781B08DF803009DF9D9
:10578000030000280ED4FFE79DF9031001F01F026B
:10579000012090404A094EF20011CEF2000141F87A
:1057A0002200FFE701B070474EF60C50CEF2000029
:1057B0000068C0F30220704782B08DF807000091A6
:1057C0009DF9070000280AD4FFE7009800019DF921
:1057D00007104EF20042CEF2000288540BE000980F
:1057E00000019DF8071001F00F014EF61452CEF2A1
:1057F00000028854FFE702B07047000083B00290B7
:10580000029800F0070000904EF60C51CEF2000115
:105810000868019001984FF6FF021040019001982E
:10582000009A40EA02200022C0F2FA52104301908E
:105830000198086003B0704710B586B040F214209C
:10584000C2F2000002784378807840F20E21C2F262
:105850000001B1F804C091F801E08C786946CC6091
:10586000C1F808E0C1F804C0086040F29C00C2F230
:105870000000059046F25D41C0F60001FAF710FD08
:105880000598FAF75CFD059982B240F2A810C2F2C1
:105890000000FEF755FD08B1FFE7FFE706B010BDB9
:1058A00010B586B005900598049004A8FAF7D8FDC5
:1058B0000390DDF80CE0BEF814309EF810C09EF89E
:1058C00000209EF804109EF808009EF80C40EE465A
:1058D000CEF80440CEF800C0FFF7F2F906B010BDD4
:1058E00080B540F24C10C2F2000040F20E21C2F22C
:1058F00000010022FDF74AFB18B1FFE7FBF720FF8C
:10590000FFE780BD80B540F24C10C2F2000040F2CB
:105910001421C2F200010022FDF786FB18B1FFE757
:10592000FBF70EFFFFE780BD80B582B040F2A81004
:10593000C2F2000040F2F111C2F200011222FEF7A1
:10594000A7F900284AD1FFE740F2F110C2F20000A7
:1059500046F28641C0F600010622FAF70FFDE8BBC9
:10596000FFE740F20900C2F200000021019101703E
:1059700040F21722C2F200020120107040F2F1132F
:10598000C2F200030093DA8940F20320C2F2000061
:105990000281D3F80620D3F80A30436002600A225D
:1059A000FAF794FC014640F2C000C2F20000016028
:1059B0000068FFF775FF40F2A810C2F2000046F23F
:1059C0005041C0F600010D22FEF7BAFC0099019883
:1059D0000882C860886048600860FFE702B080BD48
:1059E00080B584B040F2F010C2F200000078C00729
:1059F00038B1FFE740F2BC00C2F20000006803903B
:105A000003E0FCF76DFB0390FFE7039840F2BC0155
:105A1000C2F200010191086040F60000C4F20100EA
:105A20002021FCF72DFB013818BF012040F2F011B6
:105A3000C2F200010870FCF753FB01990968411A92
:105A400040F20400C2F2000002680020914202907D
:105A500007D3FFE740F2F010C2F200000078029096
:105A6000FFE7029800F0010004B080BD80B540F669
:105A70000040C4F201004FF480610122FCF718FBE2
:105A800080BD000080B582B000200190FCF73CFB97
:105A9000FFF784F9FEF742FDFEF7D8FCFEF7A6FDFE
:105AA000FEF7BCFDFEF700FEFFE7FFF73DFFFFF747
:105AB00097FFA8B1FFE740F20800C2F200000078AB
:105AC000C00768B1FFE7FFF71DFFFFF709FFFFF70A
:105AD000B3FE40F20801C2F2000100200870FFE7A7
